:100000000C947A000C94A2000C94A2000C94A20010
:100010000C94A2000C94A2000C94A2000C94A200D8
:100020000C94A2000C94A2000C94A2000C94A200C8
:100030000C94A2000C94A2000C94A2000C94A200B8
:100040000C944E060C94A2000C94BE060C949806D8
:100050000C94A2000C94A2000C94A2000C94A20098
:100060000C94A2000C94A200CDCCCC3D0AD7233C2A
:1000700017B7D13877CC2B329595E6241FB14F0AAC
:10008000000020410000C84200401C4620BCBE4C7D
:10009000CA1B0E5AAEC59D74000000002300260046
:1000A000290000000000240027002A0000000000B2
:1000B000250028002B0004040404040404040202A4
:1000C00002020202030303030303010204081020D7
:1000D00040800102040810200102040810200000E2
:1000E00000080002010000030407000000000000F7
:1000F0000000350711241FBECFEFD8E0DEBFCDBF13
:1001000011E0A0E0B1E0ECE2F8E102C005900D9250
:10011000AC35B107D9F722E0ACE5B1E001C01D92E2
:10012000A73EB207E1F710E0CAE7D0E004C021978C
:10013000FE010E940E0CC937D107C9F70E94720751
:100140000C94140C0C94000090E0FC01E252FF4F60
:100150002491FC01E653FF4F3491FC01EA54FF4F18
:10016000E491EE23C9F0222339F0233001F1A8F401
:10017000213019F1223029F1F0E0EE0FFF1FE45594
:10018000FF4FA591B4918FB7F894EC91611126C0FF
:1001900030953E233C938FBF08952730A9F0283037
:1001A000C9F0243049F7809180008F7D03C0809191
:1001B00080008F7780938000DFCF84B58F7784BDF8
:1001C000DBCF84B58F7DFBCF8091B0008F7780939C
:1001D000B000D2CF8091B0008F7DF9CF3E2BDACF27
:1001E000CF93DF9390E0FC01E653FF4F24918A54B4
:1001F0009F4FFC0184918823D1F090E0880F991FD4
:10020000FC01EE55FF4FA591B491FC01E455FF4F61
:10021000C591D49161110EC09FB7F8948C91E22FD3
:10022000E0958E238C932881E223E8839FBFDF91A2
:10023000CF9108958FB7F894EC91E22BEC938FBF98
:10024000F6CF3FB7F8948091700190917101A09121
:100250007201B091730126B5A89B05C02F3F19F01C
:100260000196A11DB11D3FBFBA2FA92F982F882736
:10027000BC01CD01620F711D811D911D42E0660F11
:10028000771F881F991F4A95D1F70895AF92BF92A3
:10029000CF92DF92EF92FF920F931F93CF93DF9352
:1002A0006C017B018B01040F151FEB015E01AE1881
:1002B000BF08C017D10759F06991D601ED91FC91A3
:1002C0000190F081E02DC6010995892B79F7C501D0
:1002D000DF91CF911F910F91FF90EF90DF90CF9022
:1002E000BF90AF900895FC01538D448D252F30E0D1
:1002F000842F90E0821B930B541710F0CF96089533
:1003000001970895FC01918D828D981761F0A28D5F
:10031000AE0FBF2FB11D5D968C91928D9F5F9F7325
:10032000928F90E008958FEF9FEF0895FC01918DDB
:10033000828D981731F0828DE80FF11D858D90E048
:1003400008958FEF9FEF0895FC01918D228D892FE5
:1003500090E0805C9F4F821B91098F7399270895CD
:1003600084E791E00E94A40121E0892B09F420E0B8
:10037000822F089580E090E0892B29F00E94B0013F
:1003800081110C9400000895FC01A48DA80FB92FD1
:10039000B11DA35ABF4F2C91848D90E001968F73AD
:1003A0009927848FA689B7892C93A089B1898C91CC
:1003B000837080648C93938D848D981306C002881B
:1003C000F389E02D80818F7D80830895EF92FF92E5
:1003D0000F931F93CF93DF93EC0181E0888F9B8D68
:1003E0008C8D98131AC0E889F989808185FF15C022
:1003F0009FB7F894EE89FF896083E889F989808145
:100400008370806480839FBF81E090E0DF91CF9113
:100410001F910F91FF90EF900895F62E0B8D10E035
:100420000F5F1F4F0F731127E02E8C8D8E110CC0A4
:100430000FB607FCFACFE889F989808185FFF5CFEF
:10044000CE010E94C401F1CFEB8DEC0FFD2FF11D09
:10045000E35AFF4FF0829FB7F8940B8FEA89FB892C
:1004600080818062CFCFCF93DF93EC01888D88238A
:10047000B9F0AA89BB89E889F9898C9185FD03C007
:10048000808186FD0DC00FB607FCF7CF8C9185FFEC
:10049000F2CF808185FFEDCFCE010E94C401E9CF6C
:1004A000DF91CF910895CF93DF93EC0188819981FB
:1004B000DC01ED91FC910190F081E02D09952A81FC
:1004C0003B81820F931F9B838A83DF91CF91089595
:1004D000CF93DF93EC0188819981DC01ED91FC9150
:1004E0000280F381E02D09952A813B81820F931FC1
:1004F0009B838A83DF91CF9108958F929F92AF92D1
:10050000BF92CF92DF92EF92FF920F931F93CF9300
:10051000DF93CDB7DEB766970FB6F894DEBF0FBE98
:10052000CDBF6C018E01095E1F4F78018AE0882ED5
:10053000912CA12CB12CCB01BA01A50194010E94F0
:10054000EC0B942F852F605DF80162938F01A90158
:10055000692F782F411551056105710561F7A701D4
:100560004E1B5F0BBF01C6010E94680266960FB664
:10057000F894DEBF0FBECDBFDF91CF911F910F91D9
:10058000FF90EF90DF90CF90BF90AF909F908F90B3
:100590000895FC012581222339F0F8E02F02900113
:1005A0001124820F931F089590E080E00895CF9367
:1005B000DF93EC0190911E02892F8F7761F4907880
:1005C000906290931E0210921B0210921A021092D7
:1005D0001D0210921C0280911E0285FD05C080E064
:1005E00090E0DF91CF9108952097C9F380911A028E
:1005F00090911B02009749F1DC011696ED91FC9158
:10060000DE010D900020E9F71197AD014C1B5D0B49
:1006100030E020E0309749F0DF010D900020E9F74D
:100620009D01215031092E1B3F0B2417350751F432
:10063000DE012C0F3D1F2A173B0799F25D91419176
:100640005417C9F30E94C902D5CFE0911502F09169
:10065000160280911302909114020896E817F90788
:1006600020F481E080931902BACF3897F0931602F4
:10067000E0931502309709F4B2CFA0911C02B0911B
:100680001D021097A1F0CF018A1B9B0B23E09595CB
:1006900087952A95E1F715968C93F0931D02E093C8
:1006A0001C0215821482D783C683CF019ACFF093A0
:1006B0001B02E0931A02F1CFFB0101900020E9F741
:1006C0003197AF01461B570B0C9468021F93CF93D1
:1006D000DF93E2E1F1E01281112379F0329621817A
:1006E0006213F9CFEC016CE50E945302612FCE0139
:1006F000DF91CF911F910C9453026111F9CF63E206
:1007000071E0DF91CF911F910C945C032F923F9287
:100710004F925F926F927F928F929F92AF92BF9211
:10072000CF92DF92EF92FF920F931F93CF93DF93BD
:10073000CDB7DEB76C970FB6F894DEBF0FBECDBF56
:100740008C011B01DC0114968C9114978F778630F5
:1007500009F499C268F58230A0F11296ED90FC90F0
:100760001397CC901196DC90843008F05DC2A701FD
:10077000B601C1010E946802F101828193816C96E9
:100780000FB6F894DEBF0FBECDBFDF91CF911F91A2
:100790000F91FF90EF90DF90CF90BF90AF909F9020
:1007A0008F907F906F905F904F903F902F90089523
:1007B0008C3069F160F4883009F460C28A3009F441
:1007C00046C26AE271E0C1010E945C03ECC1803262
:1007D00009F4F3C18034A9F76BE5C1010E9453020B
:1007E000F801008111810115110509F4E1C1B10180
:1007F000C8010E948603C8010E94C9028C01892B8E
:1008000009F4D6C16CE2C1010E945302ECCFF80199
:10081000C080D180E280F380A7019601C701B601B4
:100820000E94070A8111CDCF20E030E0A901C70165
:10083000B6010E94070A882379F0A7019601C70133
:10084000B6010E949B099B01AC01C701B6010E9441
:10085000070A882309F4B5CF20E030E0A901C701D9
:10086000B6010E94070A87FF08C06DE2C1010E941D
:100870005302F7FAF094F7F8F09420E836E948E1EB
:100880005BE4C701B6010E94660B87FD88C074E176
:10089000A72EB12C00E210E0188E1F8AF501E05857
:1008A000FF4F6591759185919491A70196010E94E2
:1008B000070A18169CF0F501E859FF4F259135916C
:1008C00045915491C701B6010E946B0B6B017C01ED
:1008D0002F89388D200F311F388F2F8B1595079555
:1008E00034E0A31AB1088CEFA8168FEFB806B1F662
:1008F00055245A9420E030E0A901C701B6010E94B6
:10090000660B18160CF052C02CEA35EC47E257E3A0
:10091000C701B6010E94070A18160CF447C0A52D9E
:10092000B4E0AB02C0011124B12CA12CFC01E859A8
:10093000FF4F3F019C0120583F4F49013FEF5316A5
:1009400009F434C0F301EA0DFB1D659175918591A1
:10095000949120E030E040E251E40E946B0BA7014B
:1009600096010E94660B18169CF4F401EA0DFB1D1B
:100970002591359145915491C701B6010E946B0BA9
:100980006B017C018F89988D801B910B988F8F8BC9
:10099000159507955A9494E0A91AB108CFCF00E2B3
:1009A00010E055E0552E188E1F8AA4CFC701B6015E
:1009B0000E94850A4B015C012B013C0106E080E4AA
:1009C00092E4AFE0B0E0898F9A8FAB8FBC8F102F8D
:1009D00001509AE04916510461047104C8F0698D10
:1009E0007A8D8B8D9C8D2AE030E040E050E00E94B3
:1009F000EC0B298F3A8F4B8F5C8FC301B2012AE039
:100A000030E040E050E00E94EC0B29013A01DFCFDA
:100A1000C501B4010E94B40A9B01AC01C701B60133
:100A20000E949A096B017C01698D7A8D8B8D9C8D5A
:100A30000E94B40A9B01AC01C701B6010E946B0B76
:100A40002B013C010E94850A6B017C010E94B40AC3
:100A50009B01AC01C301B2010E949A099B01AC0148
:100A60000E949B090E94850AC60ED71EE81EF91E29
:100A7000898D9A8DAB8DBC8DC816D906EA06FB060A
:100A8000D8F09FEF891A990AA90AB90AAF89B88DD7
:100A9000AB2B39F1BAE08B169104A104B10408F133
:100AA000EF89F88D3196F88FEF8BC12CD12C760120
:100AB000812C912C540183942AE0422E512C612CDC
:100AC000712CC701B601A30192010E94EC0B672BA8
:100AD000682B692B51F4111644F469017A01115005
:100AE000F0CFC12CD12C7601E7CFB501A401C10113
:100AF0000E947D02112371F14E01F1E18F0E911CD4
:100B0000012F54019AE0492E512C612C712C015077
:100B100068F0C701B601A30192010E94EC0B605D71
:100B2000D4016E934D0169017A01F1CF812F90E0DC
:100B3000BC0160957095F501E81BF90B31978EE2C9
:100B4000808344275527461B570B6A0D7B1DC10127
:100B50000E946802EF89F88DEF2B29F165E6C1014B
:100B60000E9453020F89188D17FF07C06DE2C10163
:100B70000E945302119501951109FE0177969F017C
:100B80008AE0E82EF12CC801B7010E94D80B805DE5
:100B900082938B01672BB9F7A9014E1B5F0BBF0135
:100BA000C1010E946802D10112968D919C91E7CDFE
:100BB0006DE5C1010E945302F6CF6BE7C1010E94AF
:100BC0005302F801008111810115110559F1D80175
:100BD0001696CC9016971796DC9062E2C1010E949F
:100BE00053027601F70161917F01662321F0C10173
:100BF0000E946603F7CF62E2C1010E9453026AE3DA
:100C0000C1010E945302B101C8010E948603C801BC
:100C10000E94C9028C01892B29F06CE2C1010E945B
:100C20005302D2CF6DE7C5CF62E2C1010E945302E9
:100C30008601E00EF11EE016F10639F0F80161912F
:100C40008F01C1010E946603F6CF62E2B2CFCD9060
:100C5000DD90ED90FC90B701A601F7FE0BC06DE2B0
:100C6000C1010E94530244275527BA014C195D095E
:100C70006E097F09C1010E947D027ECD4D915D917B
:100C80006D917C91F7CF8C916FE271E0811102C080
:100C900064E371E0C1010E945C036ECD1F920F926C
:100CA0000FB60F9211242F933F938F939F93AF937F
:100CB000BF9380916C0190916D01A0916E01B091F4
:100CC0006F0130916B0123E0230F2D3758F501960A
:100CD000A11DB11D20936B0180936C0190936D0158
:100CE000A0936E01B0936F0180917001909171019A
:100CF000A0917201B09173010196A11DB11D809365
:100D0000700190937101A0937201B0937301BF9130
:100D1000AF919F918F913F912F910F900FBE0F90A8
:100D20001F90189526E8230F0296A11DB11DD2CF62
:100D30001F920F920FB60F9211242F933F934F9350
:100D40005F936F937F938F939F93AF93BF93EF9333
:100D5000FF9384E791E00E94C401FF91EF91BF915E
:100D6000AF919F918F917F916F915F914F913F9143
:100D70002F910F900FBE0F901F9018951F920F92FA
:100D80000FB60F9211242F938F939F93EF93FF939E
:100D9000E0918401F09185018081E0918A01F091D8
:100DA0008B0182FD1BC0908180918D018F5F8F73BD
:100DB00020918E01821741F0E0918D01F0E0EC5816
:100DC000FE4F958F80938D01FF91EF919F918F91B1
:100DD0002F910F900FBE0F901F9018958081F4CF28
:100DE000CF92DF92EF92FF920F931F93E82FF92F8C
:100DF00005C0015011092109310961F19081962343
:100E00009417B9F305C0015011092109310911F1F5
:100E1000908196239413F7CFC12CD12CE12CF12C87
:100E20000AC08FEFC81AD80AE80AF80A0C151D057F
:100E30002E053F0579F080818623841791F36C2D70
:100E40007D2D8E2D9F2D1F910F91FF90EF90DF90A4
:100E5000CF90089560E070E080E090E01F910F91E6
:100E6000FF90EF90DF90CF900895E4E7F1E01382D8
:100E7000128288EE93E0A0E0B0E084839583A6839D
:100E8000B78384E091E09183808385EC90E095873F
:100E9000848784EC90E09787868780EC90E0918B44
:100EA000808B81EC90E0938B828B82EC90E0958B31
:100EB000848B86EC90E0978B868B118E128E138E2E
:100EC000148EE1E1F2E08FE192E0918380839383DD
:100ED000828387EE92E0958384839783868310864E
:100EE00015860895CF93DF9300D000D0CDB7DEB73D
:100EF000789484B5826084BD84B5816084BD85B5F5
:100F0000826085BD85B5816085BD80916E00816000
:100F100080936E00109281008091810082608093A6
:100F200081008091810081608093810080918000A8
:100F30008160809380008091B10084608093B100D3
:100F40008091B00081608093B00080917A008460CD
:100F500080937A0080917A00826080937A008091F9
:100F60007A00816080937A0080917A008068809313
:100F70007A001092C10061E089E00E94F00060E018
:100F80008AE00E94F00061E082E00E94F00061E0EF
:100F900083E00E94F00061E084E00E94F00061E0E4
:100FA00084E00E94A400E0918401F091850182E038
:100FB0008083E0918001F09181011082E0918201B3
:100FC000F09183018FEC808310928C01E091880175
:100FD000F091890186E08083E0918601F09187019C
:100FE000808180618083E0918601F091870180811A
:100FF00088608083E0918601F0918701808180681C
:101000008083E0918601F091870180818F7D8083CC
:1010100030E0232E30E0332E42E0E42EF12CCC24BD
:10102000C394D12C2FB7F89480916C0190916D01ED
:10103000A0916E01B0916F012FBF809367019093D3
:101040006801A0936901B0936A0160E089E00E94A1
:10105000A40083E090E00197F1F761E089E00E944D
:10106000A40083E290E00197F1F760E089E00E943C
:10107000A400E4EDF0E06491E0ECF0E08491E82F6E
:10108000F0E0EE0FFF1FE856FF4F8591949100E4CA
:1010900012E42FE030E0462F0E94F0066115710542
:1010A0008105910529F06F5F7F4F8F4F9F4F9F7094
:1010B0009B0177FF02C02F5F3F4FB9017595679580
:1010C000072E000C880B990B0E94B60A2DEC3CEC05
:1010D00048EE51E40E940C0A0E947E0A4B01709374
:1010E00066016093650140906701509068016090CF
:1010F000690170906A0164367105CCF581E08093D6
:10110000640180915E0190915F01A0916001B091B6
:101110006101A3019201281B390B4A0B5B0BDA0119
:10112000C90188389341A105B10508F461C08091D7
:101130006201909163010097A9F580916401882371
:1011400009F456C040925E0150925F0160926001C6
:1011500070926101D0926301C092620160E084E00C
:101160000E94A40061E083E00E94A40041C01092AC
:10117000640161E084E00E94A40060E083E00E94DA
:10118000A40060E082E00E94A4001092630110922B
:10119000620140925E0150925F0160926001709224
:1011A0006101AFCF8130910509F0A9C08091640140
:1011B0008823F1F000915C0110915D0140925E0185
:1011C00050925F016092600170926101F092630140
:1011D000E092620160E083E00E94A40061E082E0AE
:1011E0000E94A4000F5F1F4F10935D0100935C01EC
:1011F0008AE391E00E94D702FC01892B61F094817F
:1012000090789A609483092C000CAA08BB0880820D
:101210009182A282B38283E491E00E94D702FC0112
:10122000892B81F020915C0130915D01948190784F
:101230009A609483C901330FAA0BBB0B80839183FF
:10124000A283B38383E591E00E94D702FC01892B3E
:1012500081F02091620130916301948190789A60CD
:101260009483C901330FAA0BBB0B80839183A283A4
:10127000B38344E751E05A8349831C821B82BE0139
:101280006F5F7F4F8AE192E00E94860342E050E068
:1012900069E571E084E791E00E9446010E94210126
:1012A0002B013C0184EF882E99249394A12CB12C1E
:1012B0000E9421016419750986099709683E7340E7
:1012C00081059105A8F351E0851A9108A108B1089C
:1012D00088EE480E83E0581E611C711C8114910435
:1012E000A104B10429F72114310409F49BCE0E9412
:1012F000B001882309F496CE0E94000093CE029795
:1013000009F076CF80916401882309F471CF40926F
:101310005E0150925F0160926001709261011092D3
:1013200063011092620160E082E00E94A40061E02B
:1013300084E01ACF5058BB27AA270E94B2090C9408
:101340002C0B0E941E0B38F00E94250B20F039F464
:101350009F3F19F426F40C941B0B0EF4E095E7FB69
:101360000C94150BE92F0E943D0B58F3BA17620736
:1013700073078407950720F079F4A6F50C945F0BAA
:101380000EF4E0950B2EBA2FA02D0B01B9019001A0
:101390000C01CA01A0011124FF27591B99F0593FE4
:1013A00050F4503E68F11A16F040A22F232F342F2C
:1013B0004427585FF3CF469537952795A795F0407A
:1013C0005395C9F77EF41F16BA0B620B730B840B8F
:1013D000BAF09150A1F0FF0FBB1F661F771F881F47
:1013E000C2F70EC0BA0F621F731F841F48F487959F
:1013F00077956795B795F7959E3F08F0B0CF939591
:10140000880F08F09927EE0F9795879508950E9409
:10141000F10A08F481E008950E94200A0C942C0B34
:101420000E94250B58F00E941E0B40F029F45F3FEC
:1014300029F00C94150B51110C94600B0C941B0BA0
:101440000E943D0B68F39923B1F3552391F3951B4B
:10145000550BBB27AA2762177307840738F09F5FD5
:101460005F4F220F331F441FAA1FA9F335D00E2E42
:101470003AF0E0E832D091505040E695001CCAF7AF
:101480002BD0FE2F29D0660F771F881FBB1F261772
:1014900037074807AB07B0E809F0BB0B802DBF0149
:1014A000FF2793585F4F3AF09E3F510578F00C9418
:1014B000150B0C94600B5F3FE4F3983ED4F38695D4
:1014C00077956795B795F7959F5FC9F7880F911D39
:1014D0009695879597F90895E1E0660F771F881F25
:1014E000BB1F621773078407BA0720F0621B730BD8
:1014F000840BBA0BEE1F88F7E09508950E94850AC9
:101500006894B1110C94600B08950E94450B88F00B
:101510009F5798F0B92F9927B751B0F0E1F0660FB7
:10152000771F881F991F1AF0BA95C9F714C0B130F8
:1015300091F00E945F0BB1E008950C945F0B672F50
:10154000782F8827B85F39F0B93FCCF38695779527
:101550006795B395D9F73EF4909580957095619510
:101560007F4F8F4F9F4F0895E89409C097FB3EF43B
:1015700090958095709561957F4F8F4F9F4F9923E0
:10158000A9F0F92F96E9BB279395F695879577955E
:101590006795B795F111F8CFFAF4BB0F11F460FF1E
:1015A0001BC06F5F7F4F8F4F9F4F16C0882311F076
:1015B00096E911C0772321F09EE8872F762F05C08A
:1015C000662371F096E8862F70E060E02AF09A9525
:1015D000660F771F881FDAF7880F9695879597F91A
:1015E0000895990F0008550FAA0BE0E8FEEF1616B4
:1015F0001706E807F907C0F012161306E407F50707
:1016000098F0621B730B840B950B39F40A2661F07A
:10161000232B242B252B21F408950A2609F4A1401D
:10162000A6958FEF811D811D089597F99F6780E82A
:1016300070E060E008959FEF80EC089500240A9424
:101640001616170618060906089500240A9412169D
:101650001306140605060895092E0394000C11F4D0
:10166000882352F0BB0F40F4BF2B11F460FF04C07D
:101670006F5F7F4F8F4F9F4F089557FD9058440FD6
:10168000551F59F05F3F71F04795880F97FB991FE1
:1016900061F09F3F79F0879508951216130614069E
:1016A000551FF2CF4695F1DF08C01616170618062B
:1016B000991FF1CF86957105610508940895E89406
:1016C000BB2766277727CB0197F908950E94F10A77
:1016D00008F48FEF08950E947E0B0C942C0B0E944F
:1016E0001E0B38F00E94250B20F0952311F00C946E
:1016F000150B0C941B0B11240C94600B0E943D0BDA
:1017000070F3959FC1F3950F50E0551F629FF00154
:10171000729FBB27F00DB11D639FAA27F00DB11D6D
:10172000AA1F649F6627B00DA11D661F829F2227F6
:10173000B00DA11D621F739FB00DA11D621F839F7D
:10174000A00D611D221F749F3327A00D611D231F53
:10175000849F600D211D822F762F6A2F11249F57A1
:1017600050409AF0F1F088234AF0EE0FFF1FBB1FA4
:10177000661F771F881F91505040A9F79E3F510563
:1017800080F00C94150B0C94600B5F3FE4F3983ED3
:10179000D4F3869577956795B795F795E7959F5F0D
:1017A000C1F7FE2B880F911D9695879597F908959F
:1017B000AA1BBB1B51E107C0AA1FBB1FA617B70777
:1017C00010F0A61BB70B881F991F5A95A9F7809593
:1017D0009095BC01CD010895A1E21A2EAA1BBB1B56
:1017E000FD010DC0AA1FBB1FEE1FFF1FA217B307ED
:1017F000E407F50720F0A21BB30BE40BF50B661F03
:10180000771F881F991F1A9469F7609570958095C6
:1018100090959B01AC01BD01CF010895EE0FFF1F14
:0C1820000590F491E02D0994F894FFCF9E
:10182C0000000000E601460173013302A4018201AD
:10183C0096012F2F22225C5C6208660C6E0A720DD8
:10184C007409005C7530303030006E756C6C00744F
:10185C007275650066616C73650064697374616EA2
:10186C006365007065646573747269616E436F754E
:0C187C006E74007374617465000D0A0046
:00000001FF
